{
  "address": "0x5B7F0e72b73Bef7a10C3505b33a4bE37B231c872",
  "abi": [
    {
      "inputs": [
        {
          "internalType": "contract IKashiPair[]",
          "name": "kashiPairs",
          "type": "address[]"
        }
      ],
      "name": "checker",
      "outputs": [
        {
          "internalType": "bool",
          "name": "canExec",
          "type": "bool"
        },
        {
          "internalType": "bytes",
          "name": "execPayload",
          "type": "bytes"
        }
      ],
      "stateMutability": "view",
      "type": "function"
    },
    {
      "inputs": [
        {
          "internalType": "contract IKashiPair[]",
          "name": "kashiPairs",
          "type": "address[]"
        }
      ],
      "name": "updateExchangeRateForPairs",
      "outputs": [],
      "stateMutability": "nonpayable",
      "type": "function"
    }
  ],
  "transactionHash": "0xaa574f00ab406d669c6088f0f0af855b552c38b62f228aeadfa25d58f1a05945",
  "args": [],
  "numDeployments": 2,
  "solcInputHash": "b1ef2cb7acec8687ce0bc0f1b353035b",
  "bytecode": "0x608060405234801561001057600080fd5b50610a55806100206000396000f3fe608060405234801561001057600080fd5b50600436106100365760003560e01c8063848438c71461003b578063f4997b9914610065575b600080fd5b61004e61004936600461061b565b61007a565b60405161005c929190610747565b60405180910390f35b61007861007336600461061b565b61047d565b005b600060606000835167ffffffffffffffff81111561009a5761009a610578565b6040519080825280602002602001820160405280156100c3578160200160208202803683370190505b50905060005b84518110156103e65760008582815181106100e6576100e661076a565b602002602001015173ffffffffffffffffffffffffffffffffffffffff16637dc0d1d06040518163ffffffff1660e01b8152600401602060405180830381865afa158015610138573d6000803e3d6000fd5b505050506040513d601f19601f8201168201806040525081019061015c9190610799565b905060008683815181106101725761017261076a565b602002602001015173ffffffffffffffffffffffffffffffffffffffff166374645ff36040518163ffffffff1660e01b8152600401600060405180830381865afa1580156101c4573d6000803e3d6000fd5b505050506040513d6000823e601f3d9081017fffffffffffffffffffffffffffffffffffffffffffffffffffffffffffffffe016820160405261020a91908101906107bd565b905060008784815181106102205761022061076a565b602002602001015173ffffffffffffffffffffffffffffffffffffffff16633ba0b9a96040518163ffffffff1660e01b8152600401602060405180830381865afa158015610272573d6000803e3d6000fd5b505050506040513d601f19601f82011682018060405250810190610296919061086f565b90506000808473ffffffffffffffffffffffffffffffffffffffff1663eeb8a8d3856040518263ffffffff1660e01b81526004016102d49190610888565b6040805180830381865afa1580156102f0573d6000803e3d6000fd5b505050506040513d601f19601f82011682018060405250810190610314919061089b565b9150915081156103ce576000838285116103375761033285846108fd565b610341565b61034183866108fd565b61034c906064610914565b6103569190610951565b905060148111156103cc578a87815181106103735761037361076a565b602002602001015188888151811061038d5761038d61076a565b602002602001019073ffffffffffffffffffffffffffffffffffffffff16908173ffffffffffffffffffffffffffffffffffffffff1681525050600199505b505b505050505080806103de9061098c565b9150506100c9565b50821561047757806040516024016103fe91906109c5565b604080517fffffffffffffffffffffffffffffffffffffffffffffffffffffffffffffffe08184030181529190526020810180517bffffffffffffffffffffffffffffffffffffffffffffffffffffffff167ff4997b990000000000000000000000000000000000000000000000000000000017905291505b50915091565b60005b815181101561057457600073ffffffffffffffffffffffffffffffffffffffff168282815181106104b3576104b361076a565b602002602001015173ffffffffffffffffffffffffffffffffffffffff1614610562578181815181106104e8576104e861076a565b602002602001015173ffffffffffffffffffffffffffffffffffffffff166302ce728f6040518163ffffffff1660e01b815260040160408051808303816000875af115801561053b573d6000803e3d6000fd5b505050506040513d601f19601f8201168201806040525081019061055f919061089b565b50505b8061056c8161098c565b915050610480565b5050565b7f4e487b7100000000000000000000000000000000000000000000000000000000600052604160045260246000fd5b604051601f82017fffffffffffffffffffffffffffffffffffffffffffffffffffffffffffffffe016810167ffffffffffffffff811182821017156105ee576105ee610578565b604052919050565b73ffffffffffffffffffffffffffffffffffffffff8116811461061857600080fd5b50565b6000602080838503121561062e57600080fd5b823567ffffffffffffffff8082111561064657600080fd5b818501915085601f83011261065a57600080fd5b81358181111561066c5761066c610578565b8060051b915061067d8483016105a7565b818152918301840191848101908884111561069757600080fd5b938501935b838510156106c157843592506106b1836105f6565b828252938501939085019061069c565b98975050505050505050565b60005b838110156106e85781810151838201526020016106d0565b838111156106f7576000848401525b50505050565b600081518084526107158160208601602086016106cd565b601f017fffffffffffffffffffffffffffffffffffffffffffffffffffffffffffffffe0169290920160200192915050565b821515815260406020820152600061076260408301846106fd565b949350505050565b7f4e487b7100000000000000000000000000000000000000000000000000000000600052603260045260246000fd5b6000602082840312156107ab57600080fd5b81516107b6816105f6565b9392505050565b6000602082840312156107cf57600080fd5b815167ffffffffffffffff808211156107e757600080fd5b818401915084601f8301126107fb57600080fd5b81518181111561080d5761080d610578565b61083e60207fffffffffffffffffffffffffffffffffffffffffffffffffffffffffffffffe0601f840116016105a7565b915080825285602082850101111561085557600080fd5b6108668160208401602086016106cd565b50949350505050565b60006020828403121561088157600080fd5b5051919050565b6020815260006107b660208301846106fd565b600080604083850312156108ae57600080fd5b825180151581146108be57600080fd5b6020939093015192949293505050565b7f4e487b7100000000000000000000000000000000000000000000000000000000600052601160045260246000fd5b60008282101561090f5761090f6108ce565b500390565b6000817fffffffffffffffffffffffffffffffffffffffffffffffffffffffffffffffff048311821515161561094c5761094c6108ce565b500290565b600082610987577f4e487b7100000000000000000000000000000000000000000000000000000000600052601260045260246000fd5b500490565b60007fffffffffffffffffffffffffffffffffffffffffffffffffffffffffffffffff8214156109be576109be6108ce565b5060010190565b6020808252825182820181905260009190848201906040850190845b81811015610a1357835173ffffffffffffffffffffffffffffffffffffffff16835292840192918401916001016109e1565b5090969550505050505056fea26469706673582212208178873717af20d00366e85ae4e5438f9da51fe74b6a4a8752b9c59679bb112864736f6c634300080b0033",
  "devdoc": {
    "kind": "dev",
    "methods": {},
    "version": 1
  },
  "userdoc": {
    "kind": "user",
    "methods": {},
    "version": 1
  },
  "storageLayout": {
    "storage": [],
    "types": null
  }
}